{
  "_format": "hh-sol-artifact-1",
  "contractName": "SymbolBusinessMapping",
  "sourceName": "contracts/SymbolBusinessMapping.sol",
  "abi": [
    {
      "inputs": [
        {
          "internalType": "string",
          "name": "tokenSymbol",
          "type": "string"
        },
        {
          "internalType": "string",
          "name": "businessName",
          "type": "string"
        },
        {
          "internalType": "string",
          "name": "fundingContractAddress",
          "type": "string"
        }
      ],
      "name": "addNewBusiness",
      "outputs": [
        {
          "internalType": "bool",
          "name": "",
          "type": "bool"
        }
      ],
      "stateMutability": "nonpayable",
      "type": "function"
    },
    {
      "inputs": [
        {
          "internalType": "string",
          "name": "tokenSymbol",
          "type": "string"
        }
      ],
      "name": "getBusinessFundingContract",
      "outputs": [
        {
          "internalType": "string",
          "name": "",
          "type": "string"
        }
      ],
      "stateMutability": "view",
      "type": "function"
    },
    {
      "inputs": [],
      "name": "getNumberOfContracts",
      "outputs": [
        {
          "internalType": "uint256",
          "name": "",
          "type": "uint256"
        }
      ],
      "stateMutability": "view",
      "type": "function"
    },
    {
      "inputs": [],
      "name": "getTokenSymbols",
      "outputs": [
        {
          "internalType": "string[]",
          "name": "",
          "type": "string[]"
        }
      ],
      "stateMutability": "view",
      "type": "function"
    },
    {
      "inputs": [
        {
          "internalType": "string",
          "name": "tokenSymbol",
          "type": "string"
        }
      ],
      "name": "searchToken",
      "outputs": [
        {
          "internalType": "bool",
          "name": "",
          "type": "bool"
        }
      ],
      "stateMutability": "view",
      "type": "function"
    }
  ],
  "bytecode": "0x608060405234801561001057600080fd5b50610911806100206000396000f3fe608060405234801561001057600080fd5b50600436106100575760003560e01c8063029133521461005c57806305b9381614610084578063485ee05e14610099578063510add25146100aa5780635790c729146100ca575b600080fd5b61006f61006a3660046106ec565b6100dd565b60405190151581526020015b60405180910390f35b61008c61019e565b60405161007b91906107b8565b60015460405190815260200161007b565b6100bd6100b83660046106b1565b610277565b60405161007b9190610819565b61006f6100d83660046106b1565b61032a565b600080604051806040016040528085815260200184815250905080600086604051610108919061079c565b90815260200160405180910390206000820151816000019080519060200190610132929190610591565b50602082810151805161014b9260018501920190610591565b5050600180548082018255600091909152865161019292507fb10e2d527612073b26eecdfd717e6a320cf44b4afac2b0732d9fcbe2b7fa0cf6909101906020880190610591565b50600195945050505050565b60606001805480602002602001604051908101604052809291908181526020016000905b8282101561026e5783829060005260206000200180546101e190610863565b80601f016020809104026020016040519081016040528092919081815260200182805461020d90610863565b801561025a5780601f1061022f5761010080835404028352916020019161025a565b820191906000526020600020905b81548152906001019060200180831161023d57829003601f168201915b5050505050815260200190600101906101c2565b50505050905090565b6060600082604051610289919061079c565b908152602001604051809103902060010180546102a590610863565b80601f01602080910402602001604051908101604052809291908181526020018280546102d190610863565b801561031e5780601f106102f35761010080835404028352916020019161031e565b820191906000526020600020905b81548152906001019060200180831161030157829003601f168201915b50505050509050919050565b6000805b600154811015610415576103f56001828154811061035c57634e487b7160e01b600052603260045260246000fd5b90600052602060002001805461037190610863565b80601f016020809104026020016040519081016040528092919081815260200182805461039d90610863565b80156103ea5780601f106103bf576101008083540402835291602001916103ea565b820191906000526020600020905b8154815290600101906020018083116103cd57829003601f168201915b50505050508461041e565b156104035750600192915050565b8061040d8161089e565b91505061032e565b50600092915050565b600061042a8383610434565b1590505b92915050565b81518151600091849184919081111561044b575080515b60005b818110156105575782818151811061047657634e487b7160e01b600052603260045260246000fd5b602001015160f81c60f81b6001600160f81b0319168482815181106104ab57634e487b7160e01b600052603260045260246000fd5b01602001516001600160f81b03191610156104ce5760001994505050505061042e565b8281815181106104ee57634e487b7160e01b600052603260045260246000fd5b602001015160f81c60f81b6001600160f81b03191684828151811061052357634e487b7160e01b600052603260045260246000fd5b01602001516001600160f81b031916111561054557600194505050505061042e565b8061054f8161089e565b91505061044e565b5081518351101561056f57600019935050505061042e565b815183511115610585576001935050505061042e565b6000935050505061042e565b82805461059d90610863565b90600052602060002090601f0160209004810192826105bf5760008555610605565b82601f106105d857805160ff1916838001178555610605565b82800160010185558215610605579182015b828111156106055782518255916020019190600101906105ea565b50610611929150610615565b5090565b5b808211156106115760008155600101610616565b600082601f83011261063a578081fd5b813567ffffffffffffffff80821115610655576106556108c5565b604051601f8301601f19908116603f0116810190828211818310171561067d5761067d6108c5565b81604052838152866020858801011115610695578485fd5b8360208701602083013792830160200193909352509392505050565b6000602082840312156106c2578081fd5b813567ffffffffffffffff8111156106d8578182fd5b6106e48482850161062a565b949350505050565b600080600060608486031215610700578182fd5b833567ffffffffffffffff80821115610717578384fd5b6107238783880161062a565b94506020860135915080821115610738578384fd5b6107448783880161062a565b93506040860135915080821115610759578283fd5b506107668682870161062a565b9150509250925092565b60008151808452610788816020860160208601610833565b601f01601f19169290920160200192915050565b600082516107ae818460208701610833565b9190910192915050565b6000602080830181845280855180835260408601915060408160051b8701019250838701855b8281101561080c57603f198886030184526107fa858351610770565b945092850192908501906001016107de565b5092979650505050505050565b60208152600061082c6020830184610770565b9392505050565b60005b8381101561084e578181015183820152602001610836565b8381111561085d576000848401525b50505050565b600181811c9082168061087757607f821691505b6020821081141561089857634e487b7160e01b600052602260045260246000fd5b50919050565b60006000198214156108be57634e487b7160e01b81526011600452602481fd5b5060010190565b634e487b7160e01b600052604160045260246000fdfea26469706673582212207050991ac1e808699916fc2a2c8e46cf98b84b0af84746d19e5bac8faa8bee0b64736f6c63430008040033",
  "linkReferences": {},
  "deployedLinkReferences": {}
}