{
  "_format": "hh-sol-artifact-1",
  "contractName": "SymbolBusinessMapping",
  "sourceName": "contracts/SymbolBusinessMapping.sol",
  "abi": [
    {
      "inputs": [
        {
          "internalType": "string",
          "name": "tokenSymbol",
          "type": "string"
        },
        {
          "internalType": "string",
          "name": "businessName",
          "type": "string"
        },
        {
          "internalType": "address",
          "name": "fundingContractAddress",
          "type": "address"
        }
      ],
      "name": "addNewBusiness",
      "outputs": [
        {
          "internalType": "bool",
          "name": "",
          "type": "bool"
        }
      ],
      "stateMutability": "nonpayable",
      "type": "function"
    },
    {
      "inputs": [
        {
          "internalType": "string",
          "name": "tokenSymbol",
          "type": "string"
        }
      ],
      "name": "getBusinessFundingContract",
      "outputs": [
        {
          "internalType": "address",
          "name": "",
          "type": "address"
        }
      ],
      "stateMutability": "view",
      "type": "function"
    },
    {
      "inputs": [],
      "name": "getNumberOfContracts",
      "outputs": [
        {
          "internalType": "uint256",
          "name": "",
          "type": "uint256"
        }
      ],
      "stateMutability": "view",
      "type": "function"
    },
    {
      "inputs": [],
      "name": "getTokenSymbols",
      "outputs": [
        {
          "internalType": "string[]",
          "name": "",
          "type": "string[]"
        }
      ],
      "stateMutability": "view",
      "type": "function"
    },
    {
      "inputs": [
        {
          "internalType": "string",
          "name": "tokenSymbol",
          "type": "string"
        }
      ],
      "name": "searchToken",
      "outputs": [
        {
          "internalType": "bool",
          "name": "",
          "type": "bool"
        }
      ],
      "stateMutability": "view",
      "type": "function"
    }
  ],
  "bytecode": "0x608060405234801561001057600080fd5b50610880806100206000396000f3fe608060405234801561001057600080fd5b50600436106100575760003560e01c806305b938161461005c578063485ee05e1461007a578063510add251461008b5780635790c729146100b6578063b5acc4f1146100d9575b600080fd5b6100646100ec565b6040516100719190610729565b60405180910390f35b600154604051908152602001610071565b61009e610099366004610652565b6101c5565b6040516001600160a01b039091168152602001610071565b6100c96100c4366004610652565b6101f8565b6040519015158152602001610071565b6100c96100e736600461068d565b6102ec565b60606001805480602002602001604051908101604052809291908181526020016000905b828210156101bc57838290600052602060002001805461012f906107d2565b80601f016020809104026020016040519081016040528092919081815260200182805461015b906107d2565b80156101a85780601f1061017d576101008083540402835291602001916101a8565b820191906000526020600020905b81548152906001019060200180831161018b57829003601f168201915b505050505081526020019060010190610110565b50505050905090565b600080826040516101d6919061070d565b908152604051908190036020019020600101546001600160a01b031692915050565b6000805b6001548110156102e3576102c36001828154811061022a57634e487b7160e01b600052603260045260246000fd5b90600052602060002001805461023f906107d2565b80601f016020809104026020016040519081016040528092919081815260200182805461026b906107d2565b80156102b85780601f1061028d576101008083540402835291602001916102b8565b820191906000526020600020905b81548152906001019060200180831161029b57829003601f168201915b5050505050846103bf565b156102d15750600192915050565b806102db8161080d565b9150506101fc565b50600092915050565b6000806040518060400160405280858152602001846001600160a01b0316815250905080600086604051610320919061070d565b9081526020016040518091039020600082015181600001908051906020019061034a929190610532565b50602091820151600191820180546001600160a01b0319166001600160a01b039092169190911790558054808201825560009190915286516103b3927fb10e2d527612073b26eecdfd717e6a320cf44b4afac2b0732d9fcbe2b7fa0cf690920191880190610532565b50600195945050505050565b60006103cb83836103d5565b1590505b92915050565b8151815160009184918491908111156103ec575080515b60005b818110156104f85782818151811061041757634e487b7160e01b600052603260045260246000fd5b602001015160f81c60f81b6001600160f81b03191684828151811061044c57634e487b7160e01b600052603260045260246000fd5b01602001516001600160f81b031916101561046f576000199450505050506103cf565b82818151811061048f57634e487b7160e01b600052603260045260246000fd5b602001015160f81c60f81b6001600160f81b0319168482815181106104c457634e487b7160e01b600052603260045260246000fd5b01602001516001600160f81b03191611156104e65760019450505050506103cf565b806104f08161080d565b9150506103ef565b508151835110156105105760001993505050506103cf565b81518351111561052657600193505050506103cf565b600093505050506103cf565b82805461053e906107d2565b90600052602060002090601f01602090048101928261056057600085556105a6565b82601f1061057957805160ff19168380011785556105a6565b828001600101855582156105a6579182015b828111156105a657825182559160200191906001019061058b565b506105b29291506105b6565b5090565b5b808211156105b257600081556001016105b7565b600082601f8301126105db578081fd5b813567ffffffffffffffff808211156105f6576105f6610834565b604051601f8301601f19908116603f0116810190828211818310171561061e5761061e610834565b81604052838152866020858801011115610636578485fd5b8360208701602083013792830160200193909352509392505050565b600060208284031215610663578081fd5b813567ffffffffffffffff811115610679578182fd5b610685848285016105cb565b949350505050565b6000806000606084860312156106a1578182fd5b833567ffffffffffffffff808211156106b8578384fd5b6106c4878388016105cb565b945060208601359150808211156106d9578384fd5b506106e6868287016105cb565b92505060408401356001600160a01b0381168114610702578182fd5b809150509250925092565b6000825161071f8184602087016107a2565b9190910192915050565b6000602080830181845280855180835260408601915060408160051b8701019250838701855b8281101561079557878503603f1901845281518051808752610776818989018a85016107a2565b601f01601f19169590950186019450928501929085019060010161074f565b5092979650505050505050565b60005b838110156107bd5781810151838201526020016107a5565b838111156107cc576000848401525b50505050565b600181811c908216806107e657607f821691505b6020821081141561080757634e487b7160e01b600052602260045260246000fd5b50919050565b600060001982141561082d57634e487b7160e01b81526011600452602481fd5b5060010190565b634e487b7160e01b600052604160045260246000fdfea26469706673582212200c6e9d6057298beabe09d065d7cad40270ee35e9888e672d805e8c461a96c19d64736f6c63430008040033",
  "linkReferences": {},
  "deployedLinkReferences": {}
}